:1001B700C0F9A4B0999282F880908883C6A1868EF0
:0101DB002201
:10011600E4FBEBFF7E00C39403748094805024E5D7
:10012600122FFFE433FE7C007D0A12003074B72DD7
:10013600F58274013CF583E493FF74082BF8A60757
:100146000B80CF74032512F5127B007A0079087DA7
:0B015600031200BB7FE87E030201974C
:0801D3001201DB12011680FB92
:10019700E4FDFCC3ED9FEC9E5015E4FBFA0BBB009E
:0F01A700010AEB647B4A70F50DBD00010C80E48A
:0101B6002226
:02016100AD07E8
:10016300E4FBEBC394087480948050237E00748076
:10017300A803088006CEA2E713CE13D8F8FFEDF547
:1001830082EF558224FF92A1C2A0D2A00B80D3C2DA
:03019300A2D2A253
:010196002246
:0800BB008B0B8A0C890D8D0EE0
:0A00C300E4F50FE50FC3950E50445D
:1000CD00AB0BAA0CA90D850F82758300120003F5E9
:1000DD0010E4F511C3E51194087480948050217ECD
:1000ED00007480A811088006CEA2E713CE13D8F8AD
:1000FD00FFEF551024FF92A1C2A0D2A0051180D40C
:08010D00050F80B5C2A2D2A2C9
:0101150022C7
:030000000201C733
:0C01C700787FE4F6D8FD7581120201D3A8
:10000300BB010CE58229F582E5833AF583E02250B2
:1000130006E92582F8E622BBFE06E92582F8E222FC
:0D002300E58229F582E5833AF583E4932216
:10003000C2D5EC30E709B2D5E4C39DFDE49CFCEEEB
:1000400030E715B2D5E4C39FFFE49EFE120066C3FD
:10005000E49DFDE49CFC800312006630D507C3E4F8
:060060009FFFE49EFE225A
:10006600BC000BBE0029EF8DF084FFADF022E4CC7E
:10007600F875F008EF2FFFEE33FEEC33FCEE9DEC47
:10008600984005FCEE9DFE0FD5F0E9E4CEFD22ED8D
:10009600F8F5F0EE8420D21CFEADF075F008EF2FD7
:1000A600FFED33FD4007985006D5F0F222C398FDC8
:0500B6000FD5F0EA2265
:00000001FF
