:100356001C173A53000000000000000000000000D7
:040366000000000093
:10020700205008C1AEB6BAC17FBD00BF7F1D2E36D4
:1002170036395D3E363649676B6D006F5036363678
:100227004E413636364D7E7E0E767849363636491D
:1002370059363636410176767601003636364941EB
:100247003E3E3E5D00BEBEBE41003636363E0076BF
:0302570076767E3A
:0202E000AD0768
:1002E200E4FBEBC394077480948050237E00744037
:1002F200A803088006CEA2E713CE13D8F8FFEDF5C7
:0F03020082EF558224FF92A1C2A0D2A00B80D31C
:0103110022C9
:10036A00EF75F0058485F0827583001200F9FF02AB
:02037A0002E09F
:0402A3008F758D7650
:1002A700E4FBFAE57675F005A4FFC3EB9FEA95F04A
:1002B7005026E5752BFFE43ACF2401CF3400FE7CAE
:1002C700007D05120126EC4D24FFB392A3C2A4D2F0
:0802D700A40BBB00010A80CB5F
:0102DF0022FC
:05039500C2A2D2A22269
:08025B008B6C8A6D896E8D6FBA
:10026300E4F574C3E5749405748094805031E4F527
:1002730073E573C3956F5019E57375F005A4AB6C03
:10028300256EF9E56D35F0FAAF7412036A057380D4
:0F029300E0AD6FAF741202A3120395057480C41F
:0102A2002239
:10037C00AF058F827583001200F9FF1202E00203B1
:01038C0095DB
:01039A002240
:1003120078587C007D007BFF7A0379567E007F143B
:100322001200D37B007A007958E4F5707571057D6F
:040332000402025B64
:08038D0012039A12031280FB17
:10033600E4FDFCC3ED9FEC9E5015E4FBFA0BBB00FD
:0F034600010AEB647B4A70F50DBD00010C80E4E9
:010355002285
:0300000002017B7F
:0C017B00787FE4F6D8FD75817F0201C298
:10000300E709F608DFFA8046E709F208DFFA803EDF
:1000130088828C83E709F0A3DFFA8032E309F608CC
:10002300DFFA8078E309F208DFFA807088828C8334
:10003300E309F0A3DFFA806489828A83E0A3F608E8
:10004300DFFA805889828A83E0A3F208DFFA804CC2
:1000530080D280FA80C680D4806980F28033801099
:1000630080A680EA809A80A880DA80E280CA803302
:1000730089828A83ECFAE493A3C8C582C8CCC5837A
:10008300CCF0A3C8C582C8CCC583CCDFE9DEE7804A
:100093000D89828A83E493A3F608DFF9ECFAA9F0C9
:1000A300EDFB2289828A83ECFAE0A3C8C582C8CC1F
:1000B300C583CCF0A3C8C582C8CCC583CCDFEADE38
:1000C300E880DB89828A83E493A3F208DFF980CC9A
:1000D30088F0EF60010E4E60C388F0ED2402B40493
:1000E3000050B9F582EB2402B4040050AF2323453A
:0600F3008223900053730C
:1000F900BB010CE58229F582E5833AF583E02250BC
:1001090006E92582F8E622BBFE06E92582F8E22205
:0D011900E58229F582E5833AF583E493221F
:10012600BC000BBE0029EF8DF084FFADF022E4CCBD
:10013600F875F008EF2FFFEE33FEEC33FCEE9DEC86
:10014600984005FCEE9DFE0FD5F0E9E4CEFD22EDCC
:10015600F8F5F0EE8420D21CFEADF075F008EF2F16
:10016600FFED33FD4007985006D5F0F222C398FD07
:050176000FD5F0EA22A4
:1001870002038DE493A3F8E493A34003F68001F2FE
:1001970008DFF48029E493A3F85407240CC8C33379
:1001A700C4540F4420C8834004F456800146F6DF48
:1001B700E4800B0102040810204080900207E47ECF
:1001C700019360BCA3FF543F30E509541FFEE4933D
:1001D700A360010ECF54C025E060A840B8E493A304
:1001E700FAE493A3F8E493A3C8C582C8CAC583CA2F
:1001F700F0A3C8C582C8CAC583CADFE9DEE780BEE7
:01025A0000A3
:00000001FF
