:0101130022C9
:0101140022C8
:0801050012011312011480FB2A
:03010D00020003EA
:1000E700EF1392B0EFA2E192B1A2E292B2A2E39231
:0200F700B32232
:030110008F082233
:1000C700E4FDFCC3ED9FEC9E5015E4FBFA0BBB006F
:0F00D700010AEB647B4A70F50DBD00010C80E45B
:0100E60022F7
:040003008F828E83D7
:10000700C3E58294F4E5839401501CE4FAFB7C0079
:100017007D28AF82AE83120072C3EB9FEA9E504ADF
:100027000BBB00010A80E7C3E5829488E58394133C
:10003700501CE4FAFB7C007DA0AF82AE83120072F5
:10004700C3EB9FEA9E50230BBB00010A80E7E4FA4B
:10005700FB7C007D96AF82AE83120072C3EB9FEAF2
:0A0067009E50070BBB00010A80E762
:01007100226C
:030000000200F902
:0C00F900787FE4F6D8FD7581080201054F
:10007200BC000BBE0029EF8DF084FFADF022E4CC72
:10008200F875F008EF2FFFEE33FEEC33FCEE9DEC3B
:10009200984005FCEE9DFE0FD5F0E9E4CEFD22ED81
:1000A200F8F5F0EE8420D21CFEADF075F008EF2FCB
:1000B200FFED33FD4007985006D5F0F222C398FDBC
:0500C2000FD5F0EA2259
:00000001FF
