:1000FF0048656C6C6F20776F726C642031323331CE
:03010F0032330088
:10000300C2A1D2001201127BFF7A0079FF12005DB8
:100013007FE87E031200C6C2001201127F5812014C
:0D002300467FE87E031200C6C20002011EE7
:01015C002280
:0801360012000312015C80FBC2
:07014E007F027E000200C6E3
:070155007F017E000200C6DD
:100083007F301200E67F057E001200C67F3012002B
:10009300E67F017E001200C67F301200E67F280251
:0200A30000E675
:1000A500EF1392B0EFA2E192B1A2E292B2A2E39273
:1000B500B3A2E492B4A2E592B5A2E692B63392B7A2
:0100C5002218
:08013E001200A5C2A2D2A22208
:1000E600AE07C2A012013EEEFD64016005ED64029A
:0900F600700302014E12015522B3
:08014600D2A012013E02015596
:06005D008B088A09890AE4
:10006300AB08AA09A90A850C82850B83120030FF0D
:0F007300600D120146050CE50C70E5050B80E1F0
:01008200225B
:0C0112003000047F0C80027F080200E631
:0C011E003000047F0F80027F0E0200E61C
:1000C600E4FDFCC3ED9FEC9E5015E4FBFA0BBB0070
:0F00D600010AEB647B4A70F50DBD00010C80E45C
:0100E50022F8
:0300000002012AD0
:0C012A00787FE4F6D8FD758120020136D4
:10003000BB010CE58229F582E5833AF583E0225085
:1000400006E92582F8E622BBFE06E92582F8E222CF
:0D005000E58229F582E5833AF583E49322E9
:00000001FF
