:100003007580AAE4F508C3E50894087480948050C9
:100013000E7FF47E011200C66380FF050880E7753A
:1000230080FFE4F508C3E508940874809480500EBB
:100033007FF47E011200C66380FF050880E77580A8
:100043000FE4F508C3E50894047480948050117F8D
:10005300F47E011200C6E58025E0F580050880E402
:10006300E4F508C3E50894057480948050117FF487
:100073007E011200C6E580C313F580050880E47590
:100083008007E4F508C3E508940574809480501153
:100093007FF47E011200C6E58025E0F58005088027
:1000A300E4E4F508C3E508940674809480400302F1
:1000B30000037FF47E011200C6E580C313F58005BB
:0300C3000880E1D1
:1000C600E4FDFCC3ED9FEC9E5015E4FBFA0BBB0070
:0F00D600010AEB647B4A70F50DBD00010C80E45C
:0100E50022F8
:030000000200E615
:0C00E600787FE4F6D8FD75810802000365
:00000001FF
