:10008200C0F9A4B0999282F880908883C6A1868E26
:0100A6002237
:10006600120003EFFD3395E0FCEDF47002ECF46052
:0B007600028F08E50890008293F5A0BF
:01008100225C
:08009E001200A612006680FBAF
:100003007FFFC294209002E4FF2091027F0120929F
:10001300027F022093027F03D294C2952090027F35
:10002300042091027F052092027F062093027F071E
:10003300D295C2962090027F082091027F092092D8
:10004300027F0A2093027F0BD296C2972090027FF1
:100053000C2091027F0D2092027F0E2093027F0FCE
:02006300D29732
:010065002278
:0300000002009269
:0C009200787FE4F6D8FD75810802009E1E
:00000001FF
