:10038A00205021C1AEB6BAC17FBD00BF7F1D2E3637
:10039A0036395D3E363649676B6D006F50363636F4
:1003AA004E413636364D7E7E0E7678493636364999
:1003BA005936363641017676760100363636494167
:1003CA003E3E3E5D00BEBEBE41003636363E00763B
:0303DA0076767EB6
:0104360022A3
:10041C00C29030900C7F147E001203DEB20020904C
:02042C00FD22AF
:10026700750910300055E4F508E508C39509400302
:030277000202FD83
:0E027A00E4F50AC3E50A9409748094805033B9
:10028800E4F50BC3E50B942874809480501EE508B0
:1002980075F005A42421F9E4FAFB751003AD0A12E0
:0F02A800000312041C300004050B80D730000443
:0702B700050A80C230003F80
:0E02BE00050880AEE4F508E508C39509503147
:1002CC00E4F50AC3E50A94C874809480501CE508D0
:1002DC0075F005A42421F9E4FAFBF510FD120003D6
:0D02EC0012041C200004050A80D920000423
:0402F900050880C8AC
:0102FD0022DE
:08042E0012043612026780FB84
:1003DE00E4FDFCC3ED9FEC9E5015E4FBFA0BBB0055
:0F03EE00010AEB647B4A70F50DBD00010C80E441
:0103FD0022DD
:1003FE00EF1392B0EFA2E192B1A2E292B2A2E39217
:0E040E00B3A2E492B4A2E592B5A2E692B622A1
:080003008B0C8A0D890E8D0F94
:10000B00E4F511E511250FFFE433FEE5102405FBA4
:10001B00E433FAAD03FC120231C3ED9405EC6480BA
:10002B009480501DE511250FFFE433FEAD03AC02A8
:10003B001201DCAB0CAA0D8D828C831201AFFF80F9
:10004B00027F7F8F121203FED2A07F017E0012036C
:10005B00DEC2A00511E511250FFFE433FEE51024E8
:10006B0005FBE433FAAD03FC120231C3ED9405EC4E
:10007B0064809480501FE511250FFFE433FEAD0320
:10008B00AC021201DCAB0CAA0DA90E8D828C831273
:10009B0001AFFF80027F7F8F121203FED2A17F017F
:1000AB007E001203DEC2A10511E511250FFFE4331B
:1000BB00FEE5102405FBE433FAAD03FC120231C359
:1000CB00ED9405EC64809480501FE511250FFFE43F
:1000DB0033FEAD03AC021201DCAB0CAA0DA90E8DE5
:1000EB00828C831201AFFF80027F7F8F121203FE7F
:1000FB00D2A27F017E001203DEC2A20511E51125FB
:10010B000FFFE433FEE5102405FBE433FAAD03FCEB
:10011B00120231C3ED9405EC64809480501FE511FD
:10012B00250FFFE433FEAD03AC021201DCAB0CAACE
:10013B000DA90E8D828C831201AFFF80027F7F8F02
:10014B00121203FED2A37F017E001203DEC2A305AF
:10015B0011E511250FFFE433FEE5102405FBE43315
:10016B00FAAD03FC120231C3ED9405EC648094806C
:10017B00501FE511250FFFE433FEAD03AC02120156
:10018B00DCAB0CAA0DA90E8D828C831201AFFF8004
:10019B00027F7F8F121203FED2A47F017E00120317
:0301AB00DEC2A40D
:0101AE00222E
:030000000202FEFB
:0C02FE00787FE4F6D8FD7581700203459E
:1001AF00BB010CE58229F582E5833AF583E0225005
:1001BF0006E92582F8E622BBFE06E92582F8E2224F
:0D01CF00E58229F582E5833AF583E4932269
:1001DC00BC000BBE0029EF8DF084FFADF022E4CC07
:1001EC00F875F008EF2FFFEE33FEEC33FCEE9DECD0
:1001FC00984005FCEE9DFE0FD5F0E9E4CEFD22ED16
:10020C00F8F5F0EE8420D21CFEADF075F008EF2F5F
:10021C00FFED33FD4007985006D5F0F222C398FD50
:05022C000FD5F0EA22ED
:10023100C2D5EC30E709B2D5E4C39DFDE49CFCEEE8
:1002410030E715B2D5E4C39FFFE49EFE1201DCC383
:10025100E49DFDE49CFC80031201DC30D507C3E47E
:060261009FFFE49EFE2257
:10030A0002042EE493A3F8E493A34003F68001F2D7
:10031A0008DFF48029E493A3F85407240CC8C333F4
:10032A00C4540F4420C8834004F456800146F6DFC3
:10033A00E4800B010204081020408090038AE47EC6
:10034A00019360BCA3FF543F30E509541FFEE493B8
:10035A00A360010ECF54C025E060A840B8E493A37F
:10036A00FAE493A3F8E493A3C8C582C8CAC583CAAA
:10037A00F0A3C8C582C8CAC583CADFE9DEE780BE62
:0103DD00001F
:00000001FF
