:10030700C1AEB6BAC17FBD00BF7F1D2E3636395D7F
:100317003E363649676B6D006F503636364E41367E
:1003270036364D7E7E0E767849363636495936361C
:10033700364101767676010036363649413E3E3EF5
:100347005D00BEBEBE41003636363E007676767E0E
:0103BB00221F
:10039500C29030900C7F147E00120357B20020905B
:0203A500FD2237
:10026700750910300059E4F508E508C395094003FE
:0302770002030679
:0E027A00E4F50AC3E50A9409748094805037B5
:10028800E4F50BC3E50B9428748094805022E508AC
:1002980075F005A42407F9740335F0FA7BFF75108F
:1002A80003AD0A120003120395300004050B80D336
:0302B8003000040F
:0702BB00050A80BE3000447B
:0E02C200050880AAE4F508E508C39509503642
:1002D000E4F50AC3E50A94C8748094805021E508C7
:1002E00075F005A42407F9740335F0FA7BFFE4F5F3
:1002F00010FD120003120395200004050A80D4208B
:020300000004F7
:04030200050880C3A7
:0103060022D4
:0803B3001203BB12026780FB7C
:10037700EF1392B0EFA2E192B1A2E292B2A2E3929E
:0E038700B3A2E492B4A2E592B5A2E692B62229
:080003008B0C8A0D890E8D0F94
:10000B00E4F511E511250FFFE433FEE5102405FBA4
:10001B00E433FAAD03FC120231C3ED9405EC6480BA
:10002B009480501DE511250FFFE433FEAD03AC02A8
:10003B001201DCAB0CAA0D8D828C831201AFFF80F9
:10004B00027F7F8F12120377D2A07F017E001203F3
:10005B0057C2A00511E511250FFFE433FEE510246F
:10006B0005FBE433FAAD03FC120231C3ED9405EC4E
:10007B0064809480501FE511250FFFE433FEAD0320
:10008B00AC021201DCAB0CAA0DA90E8D828C831273
:10009B0001AFFF80027F7F8F12120377D2A17F0106
:1000AB007E00120357C2A10511E511250FFFE433A2
:1000BB00FEE5102405FBE433FAAD03FC120231C359
:1000CB00ED9405EC64809480501FE511250FFFE43F
:1000DB0033FEAD03AC021201DCAB0CAA0DA90E8DE5
:1000EB00828C831201AFFF80027F7F8F1212037706
:1000FB00D2A27F017E00120357C2A20511E5112582
:10010B000FFFE433FEE5102405FBE433FAAD03FCEB
:10011B00120231C3ED9405EC64809480501FE511FD
:10012B00250FFFE433FEAD03AC021201DCAB0CAACE
:10013B000DA90E8D828C831201AFFF80027F7F8F02
:10014B0012120377D2A37F017E00120357C2A305BD
:10015B0011E511250FFFE433FEE5102405FBE43315
:10016B00FAAD03FC120231C3ED9405EC648094806C
:10017B00501FE511250FFFE433FEAD03AC02120156
:10018B00DCAB0CAA0DA90E8D828C831201AFFF8004
:10019B00027F7F8F12120377D2A47F017E0012039E
:0301AB0057C2A494
:0101AE00222E
:10035700E4FDFCC3ED9FEC9E5015E4FBFA0BBB00DC
:0F036700010AEB647B4A70F50DBD00010C80E4C8
:010376002264
:030000000203A751
:0C03A700787FE4F6D8FD7581200203B3D6
:1001AF00BB010CE58229F582E5833AF583E0225005
:1001BF0006E92582F8E622BBFE06E92582F8E2224F
:0D01CF00E58229F582E5833AF583E4932269
:1001DC00BC000BBE0029EF8DF084FFADF022E4CC07
:1001EC00F875F008EF2FFFEE33FEEC33FCEE9DECD0
:1001FC00984005FCEE9DFE0FD5F0E9E4CEFD22ED16
:10020C00F8F5F0EE8420D21CFEADF075F008EF2F5F
:10021C00FFED33FD4007985006D5F0F222C398FD50
:05022C000FD5F0EA22ED
:10023100C2D5EC30E709B2D5E4C39DFDE49CFCEEE8
:1002410030E715B2D5E4C39FFFE49EFE1201DCC383
:10025100E49DFDE49CFC80031201DC30D507C3E47E
:060261009FFFE49EFE2257
:00000001FF
