:10003100C0F9A4B0999282F880908883C6A1868E77
:100041003F065B4F666D7D077F6F777C395E797107
:05008500D2A7C2B72262
:10000300E4F508D3E508940F74809480501FE50845
:1000130090003193F5A0E50890004193F5B0D2A785
:0D002300C2B77FE87E03120051050880D6A9
:0100300022AD
:08007D0012008512000380FB54
:10005100E4FDFCC3ED9FEC9E5015E4FBFA0BBB00E5
:0F006100010AEB647B4A70F50DBD00010C80E4D1
:01007000226D
:030000000200718A
:0C007100787FE4F6D8FD75810802007D60
:00000001FF
