:10010100C0F9A4B0999282F880908883C6A1868EA6
:0101250022B7
:1000C100900107E493FF12005E7FF47E011200E1CC
:1000D10090010AE493FF12005E7FF47E010200E1C9
:08011D001201251200C180FB54
:02005E00AD07EC
:10006000E4FBEBC394087480948050237E0074807A
:10007000A803088006CEA2E713CE13D8F8FFEDF54B
:1000800082EF558224FF92A1C2A0D2A00B80D3C2DE
:03009000A2D2A257
:01009300224A
:080003008B088A09890A8D0BA4
:0A000B00E4F50CE50CC3950B50441E
:10001500AB08AA09A90A850C82758300120094F51C
:100025000DE4F50EC3E50E94087480948050217E8E
:10003500007480A80E088006CEA2E713CE13D8F868
:10004500FFEF550D24FF92A1C2A0D2A0050E80D4CA
:08005500050C80B5C2A2D2A285
:01005D002280
:1000E100E4FDFCC3ED9FEC9E5015E4FBFA0BBB0055
:0F00F100010AEB647B4A70F50DBD00010C80E441
:0101000022DC
:03000000020111E9
:0C011100787FE4F6D8FD75810E02011D18
:10009400BB010CE58229F582E5833AF583E0225021
:1000A40006E92582F8E622BBFE06E92582F8E2226B
:0D00B400E58229F582E5833AF583E4932285
:00000001FF
