:1000A400C0F9A4B0999282F880908883C6A1868E04
:1000B4003F065B4F666D7D077F6F777C395E797194
:0101110022CB
:100084009000AAE493FF12004E7FE87E031200C49E
:100094009000ADE493FF12004E7FE87E030200C49B
:0801090012011112008480FBB9
:1000C400E4FDFCC3ED9FEC9E5015E4FBFA0BBB0072
:0F00D400010AEB647B4A70F50DBD00010C80E45E
:0100E30022FA
:02004E00AD07FC
:10005000E4FBEBC394087480948050237E0074808A
:10006000A803088006CEA2E713CE13D8F8FFEDF55B
:1000700082EF558224FF92A1C2A0D2A00B80D3C2EE
:03008000A2D2A267
:01008300225A
:020003008D0866
:0A000500E4F509E509C39508503A37
:10000F001200E42509F50AE4F50BC3E50B94087417
:10001F0080948050217E007480A80B088006CEA2A9
:10002F00E713CE13D8F8FFEF550A24FF92A1C2A011
:06003F00D2A0050B80D4E5
:08004500050980BFC2A2D2A28E
:01004D002290
:030000000200FDFE
:0C00FD00787FE4F6D8FD75810B02010944
:1000E400BB010689828A83E0225002E722BBFE021A
:0900F400E32289828A83E493224D
:00000001FF
