:100126001009373839253435362A3132332D4330E4
:020136003D2B5F
:01014100229B
:1001120012008FEFFD3395E0FCEDF47002ECF46019
:03012200028F0841
:0101250022B7
:0801390012014112011280FBCA
:10008F007FFFC294209002E4FF2091027F01209213
:10009F00027F022093027F03D294C2952090027FA9
:1000AF00042091027F052092027F062093027F0792
:1000BF00D295C2962090027F082091027F0920924C
:1000CF00027F0A2093027F0BD296C2972090027F65
:1000DF000C2091027F0D2092027F0E2093027F0F42
:0200EF00D297A6
:0100F10022EC
:1000F200E4FDFCC3ED9FEC9E5015E4FBFA0BBB0044
:0F010200010AEB647B4A70F50DBD00010C80E42F
:0101110022CB
:03000000020003F8
:0C000300787FE4F6D8FD75811802004AF1
:10000F00020139E493A3F8E493A34003F68001F2CD
:10001F0008DFF48029E493A3F85407240CC8C333F2
:10002F00C4540F4420C8834004F456800146F6DFC1
:10003F00E4800B0102040810204080900126E47E2A
:10004F00019360BCA3FF543F30E509541FFEE493B6
:10005F00A360010ECF54C025E060A840B8E493A37D
:10006F00FAE493A3F8E493A3C8C582C8CAC583CAA8
:10007F00F0A3C8C582C8CAC583CADFE9DEE780BE60
:0101380000C6
:00000001FF
