:1001E100C0F9A4B0999282F880908883C6A1868EC6
:07020600C181C180010C0061
:0D01F100C290C291C2B1C2B0D2B2D2B3224C
:1001A6003091117F147E00120186C291309105B202
:0501B600002091FD2274
:1001BB003090117F147E00120186C290309005B2F0
:0501CB00012090FD225F
:10008F008E0A8F0B7C007D641200F27E007F0ACFF8
:10009F00CDCFCECCCE1200F274E12FF58274013E9B
:1000AF00F583E493F5A0D2B17F017E00120186C2E1
:1000BF00B1AE0AAF0B7C007D641200F27E007F0AA6
:1000CF00CFCDCFCECCCE1200F274E12DF5827401DC
:1000DF003CF583E493F5A0D2B07F017E0012018638
:0300EF00C2B0227A
:1001D000A20092B2300103300003D38001C392B376
:0101E00022FC
:090147001201D01201A6200030C3
:10015000E4F508F509200021AF0C7E0012008F1293
:1001600001A61201BB1201D00509E50970020508BC
:09017000C394F4E508940140DC9D
:0D0179002001D1050C80CDE4F50CD201224F
:0801FE001201F112014780FB20
:10018600E4FDFCC3ED9FEC9E5015E4FBFA0BBB00AF
:0F019600010AEB647B4A70F50DBD00010C80E49B
:0101A5002237
:03000000020003F8
:0C000300787FE4F6D8FD75812002004AE9
:1000F200BC000BBE0029EF8DF084FFADF022E4CCF2
:10010200F875F008EF2FFFEE33FEEC33FCEE9DECBA
:10011200984005FCEE9DFE0FD5F0E9E4CEFD22ED00
:10012200F8F5F0EE8420D21CFEADF075F008EF2F4A
:10013200FFED33FD4007985006D5F0F222C398FD3B
:050142000FD5F0EA22D8
:10000F000201FEE493A3F8E493A34003F68001F208
:10001F0008DFF48029E493A3F85407240CC8C333F2
:10002F00C4540F4420C8834004F456800146F6DFC1
:10003F00E4800B0102040810204080900206E47E49
:10004F00019360BCA3FF543F30E509541FFEE493B6
:10005F00A360010ECF54C025E060A840B8E493A37D
:10006F00FAE493A3F8E493A3C8C582C8CAC583CAA8
:10007F00F0A3C8C582C8CAC583CADFE9DEE780BE60
:01020D0000F0
:00000001FF
