:10014500C0F9A4B0999282F880908883C6A1868E62
:100155003F065B4F666D7D077F6F777C395E7971F2
:05019D00030F140A0F1E
:04008F008C098D0A41
:10009300EF75F06484AFF0EF75F00A84F50BEF753C
:1000A300F00A8485F00CE4F50DF50EE509C313FEA3
:1000B300E50A13FFC3E50E9FE50D9E5030E50B9057
:1000C300014593F5B0D2A47F017E00120165C2A45D
:1000D300E50C90014593F5B0D2A37F017E00120198
:0D00E30065C2A3050EE50E70C2050D80BEBE
:0100F00022ED
:10018500D2A0D2A1D2A2C2A4C2A3E4F5B0F5122294
:1000F100AF127E00EF7004C2A08012EF64014E7057
:1001010004C2A18008EF64024E7002C2A2740F25DE
:1001110012F8E6F508AF08EF3395E0C364809480E8
:10012100400B7DE87C0312008F150880E80512C39F
:10013100E5129403748094804003E4F512D2A2D2B4
:03014100A1D2A0A8
:010144002298
:080195001201851200F180FB4C
:10016500E4FDFCC3ED9FEC9E5015E4FBFA0BBB00D0
:0F017500010AEB647B4A70F50DBD00010C80E4BC
:010184002258
:03000000020003F8
:0C000300787FE4F6D8FD75811202004AF7
:10000F00020195E493A3F8E493A34003F68001F271
:10001F0008DFF48029E493A3F85407240CC8C333F2
:10002F00C4540F4420C8834004F456800146F6DFC1
:10003F00E4800B010204081020408090019DE47EB3
:10004F00019360BCA3FF543F30E509541FFEE493B6
:10005F00A360010ECF54C025E060A840B8E493A37D
:10006F00FAE493A3F8E493A3C8C582C8CAC583CAA8
:10007F00F0A3C8C582C8CAC583CADFE9DEE780BE60
:0101A200005C
:00000001FF
